:10000000002000202D19030889C8020801A4000857
:100010009DC80208B1C80208C5C802080000000057
:10002000000000000000000000000000D9C8020825
:10003000EDC8020800000000714700080BA300088B
:10004000AD1B0308B11B0308B51B030831CE020822
:10005000BD1B03088DCF0208E3CA020873CC020857
:10006000FFCC0208D11B0308D51B0308D91B0308CA
:10007000DD1B0308E11B0308E51B0308E91B03085C
:10008000ED1B0308F11B0308F51B0308F91B03080C
:10009000FD1B0308011C0308051C0308091C0308B9
:1000A0000D1C0308111C0308151C0308191C030868
:1000B0001D1C0308211C0308251C0308291C030818
:1000C0002D1C0308311C0308351C030805C9020850
:1000D0003D1C0308411C0308451C0308491C030878
:1000E0009DCD0208F1CE0208551C0308591C0308D7
:1000F0005D1C0308611C0308651C0308691C0308D8
:100100006D1C0308711C0308751C0308791C030887
:100110007D1C0308811C0308851C0308891C030837
:100120008D1C0308911C0308951C0308991C0308E7
:100130009D1C0308A11C0308A51C0308A91C030897
:10014000AD1C0308B11C0308B51C0308B91C030847
:10015000BD1C0308C11C0308C51C0308C91C0308F7
:10016000CD1C0308D11C0308D51C0308D91C0308A7
:10017000DD1C0308E11C0308E51C0308E91C030857
:10018000ED1C0308F11C030838B5DFF8D04C002043
:10019000E06120626062A062E062A081DFF8C00CD2
:1001A000E063DFF8C00C206460643220E0824FF42A
:1001B00096702083DFF8B05C4FF42072002105F1C7
:1001C000400002F027F84FF42072002105F530704E
:1001D00002F020F89022002105F5B86002F01AF82C
:1001E00040220021284602F015F840220021DFF8C5
:1001F000400D02F00FF840220021DFF8380D02F028
:1002000009F840220021DFF8300D02F003F8402207
:10021000002105F5A86001F0FDFF4022002105F551
:10022000B06001F0F7FF40220021DFF8100D01F06F
:10023000F1FF40220021DFF8080D01F0EBFF05225D
:100240000021204601F0E6FF05220021DFF8F40C32
:1002500001F0E0FF05220021DFF8D80D01F0DAFF00
:100260000020A0822063A0632061A0606063E0643E
:100270000220A07331BD80B50FF2100002F06EF8BD
:10028000DFF8D80B0021017301BD00004C5420534E
:10029000746F70007047DFF8C41B4FF47A725043DC
:1002A000C86301460FF2040002F058B84C542053C2
:1002B0005044202564000000DFF8A02B4FF47A7131
:1002C00048431064014651640FF2040002F046B83E
:1002D0004C5420575044202564000000DFF87C1B5C
:1002E000C88201460FF2040002F038B84C54205383
:1002F0005220256400000000DFF8601B08830146DF
:100300000FF2040002F02AB84C5420534152202529
:10031000640000000EB410B587B0DFF81C4DBDF8C6
:100320006E0000281ED1DFF8140DD0E90023CDE9BE
:100330000223D4E90001CDE90001DDE9022300F048
:100340008AFFDFF8181BC96B4FF47A72424391425F
:1003500006D201460FF2280002F000F801200AE060
:10036000002008E004A802F074FA204604A905223F
:1003700002F032FB002007B010BC5DF810FB00005B
:100380004C542053544F5020436865636B696E672B
:1003900020256400DFF8C40A01210162C161002147
:1003A0008162C1627047DFF8B40A01214162C16114
:1003B0007047DFF8A80AC0697047DFF8A00A00217B
:1003C000C1610FF2080001F0C9BF00004C54205277
:1003D000455345545F434D4452440000DFF87C0AC6
:1003E000002101620FF2040001F0B8BF4C5420520A
:1003F000455345545F504F5352455100DFF85C0A56
:10040000002141620FF2040001F0A8BF4C542052B9
:10041000455345545F504F4941434B00DFF83C0A78
:10042000012181620021C16201727047DFF82C0A4C
:100430000121C16270472DE9FC4106460F469046F6
:10044000DFF8EC4ADFF8205A20462946402202F025
:10045000D3FA85ED000B85ED021B85ED042B85F8A5
:10046000296085F82A7085F82B80D4E904230020C0
:10047000014602F0FDFA0ED1D4E9002302F0F8FAA9
:1004800009D1D4E9022302F0F3FA04D12046294627
:10049000402202F0B1FA95ED020B8DED000BD5E98B
:1004A00000230FF20C0001F059FFBDE8F3810000BA
:1004B0004C54205550504F5320256620256600008F
:1004C00030B583B0DFF89449A06A012815D1DFF870
:1004D000645A2846DFF89019402202F08DFA95ED13
:1004E000020B8DED000BD5E900230FF2140001F093
:1004F00035FF0020A06201203EBD00203EBD00006F
:100500004C54203173742025662C20256600000091
:1005100030B583B0DFF84449A06A012815D1DFF86F
:10052000185A2846DFF84019402202F065FA95ED86
:10053000020B8DED000BD5E900230FF2140001F042
:100540000DFF0020A06201203EBD0020A0623EBD44
:100550004C5420326E642025662C20256600000055
:100560000020DFF8F818CA6A012A01D1C862012008
:1005700070470FB400B59DB0DDE92E2302F088FA74
:10058000CDE90C01DDE92001DDE9302302F080FA3C
:10059000CDE90E010CA984B06846402202F02CFA85
:1005A0000FBC00F05FFD53EC102B0020DFF8541E51
:1005B00002F02EFB41EC100B1DB05DF814FB0000A7
:1005C0000FB470B52DED048B9CB0DFF89058687AAD
:1005D000002801D1002043E00A2801D30A2600E0C8
:1005E000AE7A9FED9A8B002422E0DFF87C1801EBB5
:1005F000801000F530710CA8402202F0FDF924A90A
:1006000084B06846402202F0F7F90FBCFFF7B1FF53
:10061000B0EE409AF0EE609A51EC190B53EC182BA7
:1006200002F0D4FB03D2B0EE498AF0EE698A641C72
:10063000E4B22046B042D8DB288B02F0EDFB024644
:100640000B4651EC180B02F0C1FB01D2002007E071
:1006500053EC182B0FF2140001F080FE0120E86427
:100660001CB0BDEC048B70BC5DF814FB4C542053E3
:1006700041204F55542025660000000030B585B05C
:10068000DFF8E44794F969058DF8000004F2695039
:1006900090F901108DF8011090F902008DF8020018
:1006A000B4F86C05ADF80300DFF89059D5E9000106
:1006B000CDE90201DDE90223DDE9000100F0CBFD17
:1006C000C4F87805DFF89407D5E90023C0E90023D2
:1006D00005B030BD0FB42DE9F0432DED088B85B08A
:1006E000DFF87847DFF88057A07A05EB80109DEDA2
:1006F000140B80EDA00B00F520709DED160B80ED26
:10070000020B9DED180B80ED040B2299816394F888
:100710000990B9F10A0F02D34FF00A0800E0C84669
:100720009FEDBF8BB0EE489AF0EE689AB0EE48AA03
:10073000F0EE68AA00261DE005EB861753EC182B97
:10074000D7E9B00102F076FB41EC180B07F53077E2
:1007500053EC192BD7E9020102F06CFB41EC190BA9
:1007600051EC1A0BD7E9042302F064FB41EC1A0B9D
:10077000761CF6B24645DFDB404602F04DFB41EC0D
:100780001B0B51EC180B53EC1B2B02F0C7FB05F5B0
:10079000A862C2E9000105F2405651EC190B53EC76
:1007A0001B2B02F0BBFBC6E9020151EC1A0B53EC08
:1007B0001B2B02F0B3FBC6E9040195F969058DF81E
:1007C000000005F2695797F901008DF8010097F9CB
:1007D00002008DF80200B5F86C05ADF80300DFF8F3
:1007E0005C88D8E90001CDE90201DDE90223DDE9F9
:1007F000000100F030FD0246C5F87825D8E9000177
:10080000C4E900010192B87800907B7895F86925D9
:1008100049460FF2142001F0A1FD96ED020B8DED7B
:10082000000B05F5A860D0E900230FF2606001F02D
:1008300095FD0320A0730FF2084001F08FFD05B075
:10084000BDEC088BBDE8F0035DF814FB0000000070
:10085000006AF8400FB42DE9F0472DED088B86B003
:10086000DFF8D047DFF8D4A7DAE90001CDE90401C9
:10087000D4E90001CDE90201DDE9042300F0EBFC3D
:10088000DFF8D855A97ADFF8E06506EB81129DED17
:10089000160B82EDB00B02F530739DED188B83EDD6
:1008A000028B9DED1A9B83ED049B237882F8E9323D
:1008B00002F2E92367785F70A7789F7000B2C2F8F0
:1008C000F802481CA872C0B20A2801D10020A87200
:1008D000687A00F1010985F809905FFA89F9A9F1B0
:1008E000010002F08FFA41EC1A0B06F2405853EC6B
:1008F0001A2BD8E9020102F08BF953EC182B02F005
:1009000099FA41EC180B53EC1A2BD8E9040102F0C8
:100910007FF953EC192B02F08DFA41EC190B484684
:1009200002F07AFA41EC1B0B53EC1A2B06F5A86087
:100930004168006802F06CF9DDE9162302F07AFAEA
:1009400053EC1B2B02F0EAFA06F5A862C2E900019B
:1009500051EC180B53EC1B2B02F0E0FAC8E9020132
:1009600051EC190B53EC1B2B02F0D8FAC8E9040127
:1009700006F26957484601280AD1207886F86905A9
:1009800060787870A078B870B4F80300A6F86C05A9
:1009900096F969058DF8000097F901008DF80100BE
:1009A00097F902008DF80200B6F86C05ADF8030067
:1009B000DAE90001CDE90201DDE90223DDE9000108
:1009C00000F049FC0246C6F87825DAE90001C5E9DD
:1009D00000010192B87800907B7896F86925494625
:1009E0000FF2440001F0BAFC98ED020B8DED000B04
:1009F00006F5A860D0E900230FF2904001F0AEFCAC
:100A0000687A012805D10120A8730FF28C4001F00B
:100A1000A5FC06B0BDEC088BBDE8F0075DF814FB43
:100A200000000000000000004C54202564205350BA
:100A30002025643A25643A25642C202564000000B2
:100A40000FB42DE9F04F2DED0A8B87B0DFF8ECB530
:100A5000DBE90001CDE90401DFF8E804D0E9002377
:100A6000CDE90223DDE90423DDE9020100F0F3FB17
:100A70008046DFF8E843A07A461E36B2002E01D544
:100A80000A3636B294F809A0504602F0C5F941EC96
:100A9000180BF54D05EB861653EC182B05F5A860E1
:100AA0004168006802F0B4F8D6E9B02301F0F0FF25
:100AB00041EC190B06F5307705F2405953EC182B31
:100AC000D9E9020102F0A4F8D7E9022301F0E0FF1E
:100AD00041EC1A0B53EC182BD9E9040102F098F8F9
:100AE000D7E9042301F0D4FF41EC1B0B9FEDDFCBD2
:100AF000D6E9B023DDE91A0102F09CF953EC1C2B76
:100B000002F086F8C6E9B001D7E90223DDE91C014D
:100B100002F090F953EC1C2B02F07AF8C7E90201BD
:100B2000D7E90423DDE91E0102F084F953EC1C2B04
:100B300002F06EF8C7E90401C7F8388053EC1A2BAD
:100B4000D7E9020102F076F941EC1A0B51EC1B0BCC
:100B5000D7E9042302F06EF941EC1B0B51EC190BA1
:100B6000D6E9B02302F066F953EC182B02F0D6F95F
:100B700005F5A862C2E9000151EC1A0B53EC182BE1
:100B800002F0CCF9C9E9020151EC1B0B53EC182B14
:100B900002F0C4F9C9E9040195F969058DF800006E
:100BA00005F2695696F901008DF8010096F90200E8
:100BB0008DF80200B5F86C05ADF80300DBE9000123
:100BC000CDE90201DDE90223DDE9000100F043FB8C
:100BD0000246C5F87825DBE90001C4E9000101926D
:100BE000B0780090737895F8692551460FF2380077
:100BF00001F0B4FB99ED020B8DED000B05F5A8603B
:100C0000D0E900230FF2842001F0A8FB0320A07399
:100C10000FF22C0001F0A2FB07B0BDEC0A8BBDE87F
:100C2000F00F5DF814FB00004C5420256420552D76
:100C300053502025643A25643A25642C202564000D
:100C40004C5420415245412053544159000000006A
:100C50000FB42DE9F0472DED0A8B86B09FED838B05
:100C6000DDE91823DDE9280102F0E4F853EC182B44
:100C700001F0CEFF41EC190BDDE91A23DDE92A0171
:100C800002F0D8F853EC182B01F0C2FF41EC1A0B1C
:100C9000DDE91C23DDE92C0102F0CCF853EC182B24
:100CA00001F0B6FF41EC180BA64CDFF890A3DAE98F
:100CB0000001CDE90401D4E90001CDE90201DDE93B
:100CC000042300F0C8FA654DA97A674E06EB81123D
:100CD00082EDB09B02F5307383ED02AB83ED048BA4
:100CE000237882F8E93202F2E92367785F70A77807
:100CF0009F70B4F80330A2F8EC32C2F8F802481C36
:100D0000A872C0B20A2801D10020A872687A00F146
:100D1000010985F809905FFA89F9A9F1010002F04B
:100D200071F841EC1B0B06F2405853EC1B2BD8E931
:100D3000020101F06DFF53EC1A2B02F07BF841EC3D
:100D40001A0B53EC1B2BD8E9040101F061FF53ECA3
:100D5000182B02F06FF841EC180B484602F05CF8D3
:100D600041EC1C0B53EC1B2B06F5A8604168006896
:100D700001F04EFF53EC192B02F05CF853EC1C2BE6
:100D800002F0CCF806F5A862C2E9000151EC1A0B9A
:100D900053EC1C2B02F0C2F8C8E9020151EC180B0D
:100DA00053EC1C2B02F0BAF8C8E9040106F26957AB
:100DB000484601280AD1207886F86905607878705D
:100DC000A078B870B4F80300A6F86C0596F9690528
:100DD0008DF8000097F901008DF8010097F90200E5
:100DE0008DF80200B6F86C05ADF80300DAE90001F1
:100DF000CDE90201DDE90223DDE9000100F02BFA73
:100E00000246C6F87825DAE90001C5E90001019239
:100E1000B87800907B7896F8692549460FF254001F
:100E200001F09CFA98ED020B8DED000B06F5A86021
:100E3000D0E900230FF2540001F090FA687A0128FB
:100E400005D10120A8730FF2500001F087FA06B017
:100E5000BDEC0A8BBDE8F0075DF814FB9020012083
:100E6000E093040060E3160068C200200000000068
:100E70000000E03F4C5420256420532D5350202582
:100E8000643A25643A25642C202564004C542025BE
:100E900066202566000000004C5420415245412048
:100EA000494E00000FB410B584B0DFF88C0A016B16
:100EB00001EBC102DFF8843A03EBC20202F5B8632A
:100EC0009DED060B83ED000B9DED080B83ED020BF2
:100ED00008AC94ED021B83ED041B9DF8413082F8B1
:100EE000E93502F2E9530DF1410464785C700DF1CB
:100EF0004104A4789C70BDF84430A2F8EC3502F2AD
:100F0000EC5211ABDB685361C48A1483048B5483A5
:100F1000002901D10121016302938DED000BDDE970
:100F200006230FF2240001F019FA1FBC5DF814FB30
:100F3000E02101202022012060220120A0220120A6
:100F4000E0220120C02901204C5420555341202586
:100F500066202566202564000FB4F0B585B0DFF863
:100F6000D8494825DFF8D469206B05FB006000F5FF
:100F7000B8619DED0A0B81ED000B9DED0C0B81ED31
:100F8000020B0CAA92ED020B81ED040B9DF851109F
:100F900080F8E91500F2E9520DF151035B785370C6
:100FA0000DF15107BF789770BDF95420A0F8EC25DA
:100FB0008DF804108DF805308DF80670ADF8072017
:100FC00094F900008DF80C0060788DF80D00A07881
:100FD0008DF80E00B4F80300ADF80F00DDE903232F
:100FE000DDE9010100F037F9074600979DF9063069
:100FF0009DF905209DF904100FF2440001F0AEF9AF
:10100000206B05FB0061C1F8007601F20061E28A05
:101010008A80228BCA80022801D2401C20630220D1
:10102000A0730FF2340001F099F905B0F0BC5DF83F
:1010300014FB0000C8290120D0290120B829012073
:101040004C5420535341312025643A25643A256499
:101050002C202564000000004C54204152454120C2
:101060004F5554000FB430B52DED048B8DB006AA4A
:1010700008A90AA89DED140B00F06EF8DDE90A231B
:101080000020DFF8BC1801F0C3FD04460D46DDE981
:101090000823DFF8B008DFF8B01801F0B9FD2246E8
:1010A0002B4601F0C7FE04460D46DDE90623DFF8B6
:1010B0009C08DFF89C1801F0ABFD22462B4601F09E
:1010C000B9FE41EC180B00AA02A904A89DED160B6D
:1010D00000F042F8DDE904234FF03330DFF87418F4
:1010E00001F096FD04460D46DDE90223DFF86808AD
:1010F000DFF8681801F08CFD22462B4601F09AFEBD
:1011000004460D46DDE90023DFF83808DFF8501803
:1011100001F07EFD22462B4601F08CFE41EC190BBE
:1011200053EC182B51EC180B01F072FD04460D46E0
:1011300053EC192B51EC190B01F06AFD22462B469A
:1011400001F078FE41EC100B02F00CF80DB0BDEC94
:10115000048B30BC5DF814FB70B52DED068BB0EE42
:10116000408AF0EE608A04460D46164651EC180B94
:1011700053EC182B01F08CFC41EC190B9FED9FAB4D
:1011800053EC192B51EC1A0B01F042FD41EC100B02
:1011900084ED008B85ED000B53EC1A2B01F0BEFEA5
:1011A00002460B4651EC190B01F072FC0022DFF8ED
:1011B000B43701F02DFDC6E90001BDEC068B70BD12
:1011C000DFF8B80D006A7047DFF8B00D406A70476D
:1011D00080B540220021DFF8900701F01BF8402283
:1011E0000021DFF8880701F015F8DFF8900D0021E5
:1011F00041728172016181820FF20C00BDE80240F0
:1012000001F0ACB8000000004C5420524553455446
:101210005F41535000000000DFF8600D006B704725
:1012200000B5DFF8181701F5B06001F5A86140229C
:1012300001F0E2FBDFF8440D0021016300BDC9B2FB
:1012400001EBC102DFF8401D01EBC20101F5B861FD
:10125000482201F0D1BB3FB54FF47A704EF66021C1
:10126000DFF8282D9DF900309DF901404C4302FB29
:1012700003439DF9024014FB0033BDF9034003FA18
:1012800084F39DF908409DF90950694302FB04115C
:101290009DF90A2012FB0010BDF90B1000FA81F035
:1012A000984204DADFF8E81C0818C01A00E0C01AF7
:1012B00001F0A8FDDFF8DC2CDFF8DC3C01F0A8FC35
:1012C00004B0BDE8304001F0CDBF2DE9F64382B057
:1012D00081460B98BDF90B404EF66025DFF8AC6CEB
:1012E0009DF908109DF909206A4306FB01219DF92B
:1012F0000A204FF47A7712FB071101FA84F1412892
:1013000008D15F18DFF8940C87420BD3DFF8900CFC
:10131000C71907E0994204D2DFF8740C4018C71AC5
:1013200000E0CF1A384601F077FD0022DFF8743C68
:1013300001F0F4FD01F096FF80465FFA88F806FBA5
:101340001876304601F068FD0022DFF85C3C01F0C1
:10135000E5FD01F087FFC0B28DF8008001468DF8F1
:10136000011005FB106001F057FDDFF8282CDFF8B5
:10137000283C01F04DFC01F075FF8DF80200ADF83E
:101380000340484600A9052201F026FB04B0BDE851
:10139000F08310B50024DFF8A005C16C012907D146
:1013A00001240021C1640FF2600000F0D7FF23E0A8
:1013B000DFF8D40BD0F87815D0F8B825914216D1C3
:1013C00090F8691590F8A925914210D100F2A95121
:1013D00000F2695042784B789A4208D18078897837
:1013E000884204D10FF6E03000F0B8FF04E0012499
:1013F0000FF6DC3000F0B2FF204610BD0000000008
:1014000000004E4000408F404C54204655000000E4
:1014100000B58DB0DFF82005407A00280AD0DFF84B
:101420008C1B84B06846402201F0E6FA0FBCFFF73F
:1014300039FD06E00FF6A0300DB05DF804EB00F0CA
:101440008DBF0DB000BD00001CB5DFF8EC44217B62
:1014500061732073401E05284DD8DFE800F0034C6F
:1014600016222C4100A801F0F4F9DFF8440B00A982
:10147000052201F0B1FA616C21640020E0720FF6E0
:101480006430BDE81C4000F069BF00A801F0E1F93C
:10149000DFF81C0B00A9052201F09EFAA06BA064E6
:1014A00013BD00A801F0D5F9DFF8040B00A905224F
:1014B00001F092FA13BD00202061A0824022014673
:1014C000DFF8A80400F0A6FE00A801F0C2F9DFF8DA
:1014D000E00A00A9052201F07FFAA06BA06413BD09
:1014E00000A801F0B6F9DFF8C80A00A9052201F04A
:1014F00073FAA06BA06413BD0CB400B583B09DF962
:1015000039108DF800100DF1390191F901108DF8A5
:1015100001100DF1390191F902108DF8021000212E
:10152000ADF8031000A9052201F056FA0EBC5DF8D3
:101530000CFB00002DE9F04F2DED0A8B9DB082468B
:101540009FED558BDFF8F083B8F81000B8F81290D3
:10155000814502D25FFA89F901E0C0B28146B8F94B
:101560001400461E00D50A36DFF8D0B30BEB861701
:1015700097ED109B97ED12AB97ED14BB01243CE067
:10158000301A00D50A300BEB801505F140010CA88C
:10159000402201F031FA07F1400184B06846402250
:1015A00001F02AFA0FBCFEF7E4FFB0EE40CAF0EEFD
:1015B00060CA51EC180B53EC1C2B01F007FC03D252
:1015C000B0EE4C8AF0EE6C8A53EC1B2BD5E914017B
:1015D00001F030FC41EC1B0B53EC192BD5E9100149
:1015E00001F028FC41EC190B51EC1A0BD5E9122340
:1015F00001F020FC41EC1A0B641CE4B22046484583
:10160000BEDB484601F008FC41EC1C0B51EC1B0B07
:1016100053EC1C2B01F082FCCAE9040151EC190BBC
:1016200053EC1C2B01F07AFCCAE9000151EC1A0BB7
:1016300053EC1C2B01F072FCCAE90201B8F810004F
:10164000B8F8121088421ED207F140010CA84022BF
:1016500001F0D2F9DFF85C1984B06846402201F04D
:10166000CBF90FBCFEF785FFB0EE40CAF0EE60CAC2
:1016700051EC180B53EC1C2B01F0A8FB03D2B0EE7D
:101680004C8AF0EE6C8AB0EE480AF0EE680A1DB0A3
:10169000BDEC0A8BBDE8F08F0000000000000000E8
:1016A0000FB42DE9F0412DED068BA0B02CA984B02C
:1016B0006846402201F0A0F90FBCFEF781FF9E4D65
:1016C00068639E4E012812D10020686306F5A86168
:1016D00084B06846402201F08FF90FBCFFF73CFC54
:1016E000FFF776FD0FF60C1000F038FE18E1B5F9A3
:1016F000144006EB841040302CA9402201F07CF904
:10170000601CA88200B20A2801D10020A882288A81
:101710000A2801D2401C2882688A401C688231460F
:1017200082B06846402201F067F90CBC0EA8FFF7B2
:10173000E3FE288A0A2801D2002700E02F7D8B4C87
:10174000D4E900010022134601F092F92FD1D4E927
:10175000020101F08DF92AD1D4E9040101F088F9E0
:1017600025D106EB8716DFF8508896F9690088F8CE
:10177000000006F2690090F9011088F8011090F954
:10178000020088F80200B6F86C00A8F80300DFF841
:10179000240806F14001402201F02EF9204606F10E
:1017A0004001402201F028F90020A063B8E010A811
:1017B000FFF7C0FEB0EE408AF0EE608ADFF8F887EF
:1017C000288B400801F028FB53EC182B01F0FEFA9F
:1017D00028D206EB871696F9690088F8000006F211
:1017E000690090F9011088F8011090F9020088F85A
:1017F0000200B6F86C00A8F80300DFF8B80706F19D
:101800004001402201F0F8F8204606F14001402254
:1018100001F0F2F80020A06368820FF2E87000F097
:101820009DFD7DE0D8E90001CDE90001DDE90E2351
:10183000FFF711FD064631460FF2D87000F08EFD1D
:10184000286C4FF47A717143884269D26F8A042FF1
:1018500066D3A06B002816D19DED100B84ED000B14
:101860009DED120B84ED020B9DED140B84ED040B2A
:10187000A663214684B06846402201F0BDF80FBC43
:10188000FEF7E8FF43E0781E01F0BCFA41EC190BCB
:10189000384601F0C1FA41EC1A0B51EC190BD4E9AE
:1018A000002301F0B5F9DDE92C2301F0C3FA53EC74
:1018B0001A2B01F033FBC4E9000151EC190BD4E9F8
:1018C000022301F0A5F9DDE92E2301F0B3FA53EC70
:1018D0001A2B01F023FBC4E9020151EC190BD4E9E6
:1018E000042301F095F9DDE9302301F0A3FA53EC6C
:1018F0001A2B01F013FBC4E90401A663214684B04E
:101900006846402201F078F80FBCFEF7E3FEA06BBA
:10191000009053EC182B698A0FF2087000F01EFD3E
:1019200020B0BDEC068BBDE8F0015DF814FB7047FC
:10193000DFF84806807B70479020012068C20020B5
:1019400000C05B409A9999999999FD3F5839B4C85C
:1019500076BE9F3F33335640AE47E17A14AEF73F31
:101960009999993F0020AC40A8C70020A0220120EF
:101970000EB470B52DED028B9FB00646DFF8FC4526
:10198000A06B0818A06300A800F063FFDFF82C56D6
:10199000284600A9052201F01FF8207B062800F246
:1019A000E682DFE810F0070012007400C100690150
:1019B0001302BF02FFF70CFC0120FFF745FD217B5E
:1019C0000FF2786000F0CAFCD1E225A983B0684626
:1019D000582201F011F80EBC304680B2FEF79AFC96
:1019E000002843D0D5E90001CDE903014D20009046
:1019F000E36BDDE903010A46014601A8FFF765FC38
:101A0000DFF8BC0501A9052200F0E6FFDFF8781534
:101A100082B06846402200F0EFFF0CBC1CA8FFF724
:101A20006BFDD5E90001CDE90001DDE90023DDE929
:101A30001C01FFF710FC05463D2D07DB29460FF280
:101A40000C6000F08BFCFEF7A5FC06E00120A06214
:101A500029460FF2086000F081FC0220FFF7F4FC39
:101A6000217B0FF2086000F079FC80E2A06A012877
:101A700040F07D820020A062DFF80C1584B068463B
:101A8000402200F0B9FF0FBCFFF70AFE6FE2FEF73D
:101A900017FD002834D00320FFF7D6FC0FF2DC50EE
:101AA00000F05CFC607A00281FD0DFF8D45429468F
:101AB00084B06846402200F09FFF0FBCFEF780FD17
:101AC0006063012811D100206063DFF8E01484B066
:101AD0006846402200F090FF0FBCFFF73DFAFFF789
:101AE00077FB0FF2AC5000F039FCDFF89C1484B0A7
:101AF0006846402200F080FF0FBCFFF7D1FD36E2C0
:101B0000FEF72EFD002800F03282207A401C207261
:101B1000C0B2032880F042810120FFF795FC0FF24C
:101B20008C5000F01BFC22E2A06A012851D1002059
:101B3000A062DFF85464607A00281DD0314684B07A
:101B40006846402200F058FF0FBCFEF739FD606385
:101B5000012811D10020606306F5A86184B06846B1
:101B6000402200F049FF0FBCFFF7F6F9FFF730FB0A
:101B70000FF2505000F0F2FB314684B0684640222C
:101B800000F03AFF0FBCFFF78BFD31460CA8402256
:101B900000F032FFDFF8E81384B06846402200F01E
:101BA0002BFF0FBCFEF7E5FCB0EE408AF0EE608A3A
:101BB000E08A01F031F953EC182B01F007F908D253
:101BC0000120FFF741FC53EC182B0FF2045000F0FA
:101BD000C5FBD5E90001CDE90201DFF8D403D0E966
:101BE0000023CDE90023DDE90223DDE90001FFF751
:101BF00032FBA16BA26C8E1A332E08D30120FFF7A3
:101C000023FC31460FF2E04000F0A8FBAFE1216C6D
:101C10004FF47A725043814280F0A981DA4982B050
:101C20006846402200F0E8FE0CBC1CA8FFF764FCEC
:101C3000D5E90001CDE90001DDE90023DDE91C0162
:101C4000FFF709FB05463D2D07DBFEF7A3FB294601
:101C50000FF2AC4000F082FB06E00120A0622946B2
:101C60000FF2F83000F07AFB0420FFF7EDFB0FF2E3
:101C7000A04000F073FB7AE1FEF74AFC002800F078
:101C80008280C04E314684B06846402200F0B4FEE7
:101C90000FBCFEF795FC6063012818D1002060633B
:101CA000C24984B06846402200F0A6FE0FBCFFF790
:101CB00053F9FFF78DFA0FF2684000F04FFB607B9D
:101CC000052840F054810120FFF7BEFB4FE1AC4DE9
:101CD00031460CA8402200F08FFE294684B06846A9
:101CE000402200F089FE0FBCFEF743FCB0EE408AB4
:101CF000F0EE608AE08A01F08FF802460B4651EC64
:101D0000180B01F063F82BD2607B052831460CD10B
:101D100084B06846402200F06FFE0FBCFEF790FED4
:101D20000FF2084000F01AFB10E00CA8402200F06F
:101D300063FE294684B06846402200F05DFE0FBC79
:101D4000FEF786FF0FF2F03000F008FBFEF72BFBEA
:101D50000520FFF779FB0FF2E83000F0FFFA06E10B
:101D60000120FFF771FB53EC182B0FF2E83000F065
:101D7000F5FA854984B06846402200F03DFE0FBC6C
:101D8000FFF78EFCF3E0FEF7EBFB002800F0EF809E
:101D9000207A401C2072C0B2032807D30620FFF728
:101DA00053FB0FF2F82000F0D9FAE0E085482064F8
:101DB0000320FFF749FB217A0FF2AC3000F0CEFA96
:101DC000216C0FF2202000F0C9FAD0E0A06A0128AF
:101DD00046D10020A0626C4E607A00281DD03146AA
:101DE00084B06846402200F007FE0FBCFEF7E8FB17
:101DF0006063012811D10020606306F5A86184B0FA
:101E00006846402200F0F8FD0FBCFFF7A5F8FFF789
:101E1000DFF90FF26C3000F0A1FA31460CA8402235
:101E200000F0EAFD564984B06846402200F0E4FD27
:101E30000FBCFEF79EFBB0EE408AF0EE608AE08AAF
:101E400000F0EAFF53EC182B00F0C0FF08D201208D
:101E5000FFF7FAFA53EC182B0FF2303000F07EFA4D
:101E6000D5E90001CDE902015148D0E90023CDE9CF
:101E70000023DDE90223DDE90001FFF7ECF9A16BA6
:101E8000A26C8E1A332E08D30120FFF7DDFA3146FB
:101E90000FF2103000F062FA69E0216C4FF47A72B0
:101EA000504381423BD2384E96F929008DF870009C
:101EB00006F2290090F901108DF8711090F90200D6
:101EC0008DF87200D5E90001CDE90001DDE90023BC
:101ED000DDE91C01FFF7BFF905463D2D07DBFEF7E5
:101EE00059FA29460FF2D42000F038FA06E0012012
:101EF000A06229460FF2D42000F030FA0420FFF748
:101F0000A3FAE07A401CE072C0B203282FD3606CC1
:101F1000410021640FF2CC0000F020FA27E0FEF728
:101F2000ADFB24E0A06BA16C401A33280BD3012039
:101F3000FFF78AFA0FF2A82000F010FA0FF2B4208F
:101F400000F00CFA13E0A06A01280BD10120FFF782
:101F50007BFA0FF2AC2000F001FA0FF2982000F0AB
:101F6000FDF904E0607B042801D1FEF787FB207BAC
:101F70001FB0BDEC028B70BC5DF810FB90200120FF
:101F8000202201206022012068C2002080EE36005D
:101F9000005C2605FCA9F1D24D62503F015C26058C
:101FA00000A4D9FA40774B41004CED40A8C700206F
:101FB000D0290120E0220120C8290120B8290120D0
:101FC000C0290120E09304004C542053410000003C
:101FD0004C542044490000004C54204E6F20504F78
:101FE000530000004C542D5750204348414E474564
:101FF000202564004C542053617665205341554D93
:10200000000000004C542052455345545F47415056
:10201000000000004C54204741204D546D202564A1
:10202000000000004C5420535020534741522025BB
:10203000642C2025662C2025640000004C542D4380
:102040004B5F53544F502025640000004C542052E5
:102050004551504F532D4620256400004C54204ECE
:102060002D524551504F5320256400004C542D47AC
:1020700045545F315F504F53202564004C542D432D
:102080004B5F555345525F4D4F564554000000007D
:102090004C54205353412D46500000004C542D53B6
:1020A000535F50415553455F535300004C542053E8
:1020B000535F475053204E4F54204F4B2031737481
:1020C000000000004C54205353412D554D0000009A
:1020D0004C542D434B5F53544F502D554D2D646937
:1020E00073742025660000004C542D434B5F5354FD
:1020F0004F502D554D2D73746570202564000000E0
:102100004C5420524551504F532D5320256400000C
:102110004C542D4745545F325F504F530000000030
:102120004C54205353412D53500000004C54205523
:1021300044542053500000004C542053535000008E
:102140004C542D434B5F555345525F4C45415649C6
:102150004E4700004C542D434845434B5F53544F6A
:10216000502D5350202566004C542D475053204E7F
:102170004F54204F4B20326E642025640000000035
:102180004C54205353412D554C0000004C542D43CA
:102190004B5F53544F502D554C2064697374202568
:1021A000660000004C542D434B5F53544F50205554
:1021B0004C20737465702025640000004C5420523C
:1021C0004551504F532D554C202564004C54204E02
:1021D0002D524551504F532D554C20256400000081
:1021E0004C5420535320414741494E2042592053DB
:1021F000544550004C542D434B5F53544F500000F6
:102200004C5420535320414741494E2042592050BD
:102210004F53000010B5044610460A4601462046BA
:1022200001F04CF8204610BDBFF34F8FDFF80807D0
:10223000016801F4E061DFF8302711430160BFF36A
:102240004F8FFEE710B5DFF824474FF48E72002160
:102250002046FFF7DFFF204610BDDFF8100770476C
:1022600010B5FFF7EFFF044600231A461146084653
:1022700000F06EFAC046C04601F054F8204600F067
:1022800018F801F0A6FA204600F0CFF9204600F039
:1022900014F8204600F01EF800F092F90020607259
:1022A000A072E0722073012060730020E0750120AD
:1022B00010BD0021C171017231E010B50446DFF894
:1022C0007C0601F0DBF8DFF8A80601F0D7F8012062
:1022D000607110BD10B5044601F03BF90120A071FA
:1022E00010BD38B50446012501F0E6F9012804D1F6
:1022F0002846E0700020A0700AE0022804D10020E7
:10230000E0702846A07003E00020E070A070054651
:10231000284632BD80B501F021FB012002BD10B579
:102320000446E07901F048FC0121217010BD70B530
:1023300004460025E679E171FFF7F1FF002807D098
:102340002046FFF7BAFF2046FFF7C4FF012503E050
:10235000E6712046FFF7E3FF284670BD0EB470B566
:10236000C1B0054600A84FF4807102F0B1F9FFF743
:1023700074FF044645AB2A464FF4807100A802F072
:10238000ABF900A802F0C6F9451C00A828180021E6
:1023900000F8011CDFF8DC653078401C3070707884
:1023A000F021084202D0992002F0D0F902F03BFA65
:1023B0007078401C7070207E2818FF2810DA207E6C
:1023C000002803D0207E00190A2101762A4600A9A0
:1023D000207E0019193002F03DFA207E2818207660
:1023E00000A802F0F0FB7078F021084202D099209A
:1023F00002F0ACF97078401E7070C0B2002801D1B4
:1024000002F00BFA03F06BF941B070BC5DF810FB01
:102410000428DFF82C0503D8DFF820150160704789
:10242000DFF84C1501607047DFF8181551F82000EF
:10243000007F002807D0DFF8400501784A1C0270B1
:10244000032900D3F0E670472DE9F84305460E4610
:1024500017464FF00208DFF81C456078F02108426B
:1024600002D0992002F072F902F0DDF96078401C88
:1024700060709DF80000401E8DF8000017F8019B69
:102480002846FFF7C5FF00AB4A463946304601F003
:10249000ACFC002810D06078F021084202D09920CE
:1024A00002F054F96078401E6070C0B2002801D17B
:1024B00002F0B3F901201FE05FFA88F8424629468E
:1024C0000FF2C040FFF74AFF4046A0F10108002884
:1024D000D9D16078F021084202D0992002F036F973
:1024E0006078401E6070C0B2002801D102F095F9FA
:1024F0002846FFF799FF0020BDE8F2832DE9F04759
:1025000004460D4616461F460898DFF83C8488F8B6
:102510000000DFF8609499F80100F021084202D031
:10252000992002F013F902F07EF999F80100401C9D
:1025300089F801002046FFF76BFF4FF0020A43467F
:1025400032463946284601F0FFFC002813D099F89E
:102550000100F021084202D0992002F0F7F899F822
:102560000100401E89F80100C0B2002801D102F02C
:1025700054F9012022E05FFA8AFA524621460FF20E
:102580001040FFF7EBFE5046A0F1010A0028D6D11B
:1025900099F80100F021084202D0992002F0D6F803
:1025A00099F80100401E89F80100C0B2002801D14D
:1025B00002F033F92046FFF737FF0020BDE8F0872F
:1025C00003F0BCBDF8B5044602270025DFF87463AC
:1025D0000DE039464F1EC9B200290AD1002804D1A6
:1025E00020690121A9408843206102276D1C152D17
:1025F00010DA56F82500006E006880470128E8D1FF
:1026000021690122AA401143216156F825100122B7
:102610000A77E3E72069032803D0022801D00128C4
:1026200002D140F480502061F1BD01F0D3BD01F032
:102630002EBE81B00022ADF80220ADF80020C07996
:10264000042808D0062809D008280AD009280BD069
:102650000A280CD00EE04FF4C8600DE04FF448603B
:102660000AE04FF4C85007E04FF4FA5004E042F299
:10267000107001E041F27070ADF802200DE0BDF87D
:102680000020521CADF80020BDF800208242F6DB8D
:10269000BDF80220521CADF80220BDF802208A428B
:1026A00003D20022ADF80020EEE701B0704741727E
:1026B00030B589B003F002FE0446FFF7CEFD0546B3
:1026C00000A8242102F004F80020ADF822000190B7
:1026D0000A208DF8080000208DF809008DF80A0006
:1026E000687A00280DD0002C18D000208DF800004A
:1026F000052001900B208DF8080000A805F022FCB1
:102700000CE0002C0AD001208DF80000052001907B
:102710000B208DF8080000A805F014FC09B030BDAE
:1027200001F0D2BD01F0DABD01210846F8E7012130
:102730000846F7E702210120F2E702210120F1E734
:1027400001F0D6BD10B50446FFF787FD447510BDF6
:10275000F8B54FF47A743C264FF4616C10FB0CF51D
:1027600011FB065545FA82F504FB0535774F97F9BD
:1027700000E01EFB0CFC97F901E01EFB06C697F972
:1027800002C046FA8CF6B7F903C004FB06C43E7AD1
:10279000002E10D141EA000414431C4301D001244F
:1027A0003C723870002801D5183038707970BA70D2
:1027B000A7F80330F1BDAC4206D32A4621460FF2FA
:1027C000DC10BDE8F840C9E5EBD22E1BA6F2D17CA7
:1027D000DFF8A8E1F445E4D333462A4621460FF258
:1027E000CC1001B0BDE8F040B8E510B504002FD022
:1027F00003F019FE5549CA68002A00D0841AB1F8BE
:102800000320A218A1F8032012B2B2F57A7F06DBEA
:10281000A2F57A72A1F803208A78521C8A7091F985
:1028200002203C2A04DB3C3A8A704A78521C4A70E7
:1028300091F901203C2A04DB3C3A4A700A78521C88
:102840000A7091F90020182A01DB00220A70C86082
:1028500010BD3E49052200F0BFB800000FB430B5EE
:102860002DED028B85B03A4C104600F0D5FA394A6E
:10287000394B00F0CDF9206161619FED388B0A98EA
:1028800000F0CAFA53EC182B00F0C2F92060616026
:102890000B9D284600F0C0FA53EC182B00F0B8F955
:1028A000A060E1609DF83400207604F118009DF8E6
:1028B000351041709DF8361081709DF83710C17049
:1028C0009DF838100171BDF8390000EE100AB8EE1D
:1028D000400A10EE100A05F05DFC224A284B00F079
:1028E00097F905F07FFCC4F81D00BDF83B00A4F883
:1028F000210004F221009DF83D108170D4F81D10D4
:1029000000EE101A80780390207E029010EE100ADC
:1029100005F040FCCDE900012A460A990FF2A0001B
:10292000FFF71CFD05B0BDEC028B30BC5DF814FB5D
:102930000749242200F050B80CED00E0005400409C
:10294000307A002000400020572A0120EC27012087
:102950004C250120FCA9F1D24D62503F8DEDB5A070
:10296000F7C6B03E3BDF4F8D0400FA059C06012000
:102970000058004024790020562A01205F4C26058B
:10298000976EA23F4957452025642025640000002A
:1029900049524520256420256400000041542D53F0
:1029A00065745453312025642025640041542D530F
:1029B000657454533220256420256420256400006A
:1029C00041542D5030202564202564202566202583
:1029D000642025640000000062B38B0708D0521EFB
:1029E00011F8013B00F8013B00F024808B07F6D181
:1029F000830740F0208000BF103A07D330B4B1E81D
:102A00003810103AA0E83810F9D230BC530724BF70
:102A1000B1E80810A0E8081044BF51F8043B40F8A2
:102A2000043BD20724BF31F8022B20F8022B44BF0D
:102A30000B7803707047083A07D3B1E80810083ADA
:102A400040F8043B40F804CBF7D25307E4E750F8D2
:102A5000041B61B150F8042BD30744BFA9F1010353
:102A60009A18002342F8043B091FFAD1EFE7704798
:102A700090420CD141EA030C50EA4C0C07D0994229
:102A800005D14FF4001C1CEB410F38BF8942704741
:102A900070B44FF0004591EA030F44BF6B4000F063
:102AA000D3B900BF841A71EB030604D26E40001B39
:102AB000B141121973414FF4001C1CEB410F34BF9C
:102AC0007CEB430684E00C0DA4EB1356362E7DDC24
:102AD000012E43DC45EAC32343EA525312BFD2021C
:102AE00092025B08240545EAC12141EA5051D2EB2C
:102AF000C020994125D407D1B0FA80F610FA06F12A
:102B000064D00020203608E0B1FA81F6B140C6F169
:102B1000200220FA02F21143B0404FEAF474B4EB01
:102B2000465434F001064FEA74040AD8D6F500166C
:102B3000760D04F00044F04061FA06F25040F14096
:102B40004840C00A40EA415021F0004128BF5FEAF6
:102B5000500550F1000044EBD12137E045EAC32392
:102B6000DB0A45EAC121C90AB6F120050EDD42EAB9
:102B70000242120CC5F1200603FA06F6EB4042EAC7
:102B800006056D42984161F100010DE062FA06F51B
:102B9000F240554063FA06FC82EA0C02F3405A40C8
:102BA0006D42904161EB030111F4801F05D1641E59
:102BB000620502D06D004041494121F48011430873
:102BC00075F1004350F1000041EB045170BC7047B7
:102BD0001CEB410F15D223F0004352EA43060BD001
:102BE0004FEA4C0CBCEB410F04D80C0D661E342E82
:102BF000B7DDEBE7801A994150EA410608BF002192
:102C0000E4E708BF1CEB430F28BF6FF00001DDE7CE
:102C1000B0B581EA030C0CF0004C40F2FF7515EAE8
:102C200011541DBF15EA1357AC42AF4239E0E41905
:102C300023EA455343F48013C90241F0004141EABD
:102C4000505EC7021100A7FB020200284FF00000EF
:102C5000EEFB01204FF00001E3FB072118BF42F01B
:102C60000102401800214941E3FB0E01A4F58064F4
:102C70000F0302D252004041494154F101046CDD7E
:102C8000470872F1004250F1000051EB0451A1F5E8
:102C900080115CBF41EA0C01B0BD4CEA0551002037
:102CA000B0BD05EA1357AC4214BFAF4241E050EA51
:102CB000410E1CBF52EA430E02E061460020B0BD47
:102CC00024423C441BD15FEA070EF6D0090302BF41
:102CD00001460020AEF1140EB1FA81F7AEEB070405
:102CE00001FA07FE0C37C7F1200100FA07F7C840C8
:102CF0004EEA000E23EA455343F48013A2E733F073
:102D00000043B3FA83F704BFB2FA82FE77440B3F65
:102D1000E41BB7F1200E2FBF02FA0EF3BB40C7F140
:102D2000200E22FA0EFE38BF43EA0E03BA40641C9E
:102D300082E750EA410E14BF52EA430E6FF00001E1
:102D40004FF4001717EB430F8ABF194617EB410FDB
:102D5000B5E74CEA05510020B0BDD4F10104B4F14F
:102D600020070FDAC4F12007520828BF42F0010201
:102D700010FA07F501FA07F7E1BF2A43E0403843AC
:102D8000E1400FE0352C98DCC7F1200452EA400204
:102D900020FA07F218BF42F0010231FA07F0A14011
:102DA0000A43002172F1004250F1000051EB0C0186
:102DB000B0BD8268521C8260426832B10268531C06
:102DC000036011704168491E416070474FF4001C58
:102DD0001CEB410F94BF1CEB430F09E041EA030CCD
:102DE00050EA4C0C52EA0C0C03D2994208BF9042B4
:102DF000704714BF8B42824270470268531C0360C5
:102E000011707047010040F10980F446404200F023
:102E100005F851F000416047010000BF09D0B0FA49
:102E200080F18840C91CC1F58461090501EBD021FE
:102E30004005704770B44FF0004591EA030C44BF61
:102E40006B40FFF72FBE00BF841A71EB030603D25D
:102E5000001BB141121973414FF4001C1CEB410FD0
:102E600034BF7CEB430443E00C0DA4EB1356352E2A
:102E700050DC45EAC323DB0A45EAC121C912B6F199
:102E800020050DDD63FA05F6EB4086EA03051242E4
:102E900018BF45F00105C01851F100010CD213E034
:102EA00062FA06F5F2405540F3415A40B340F34010
:102EB0005A408018594107D349085FEA30005FEA59
:102EC000350528BF45F0010501F58011420875F16F
:102ED000004250F1000041EB045170BC4FF4001C63
:102EE0001CEB410F38BF70470020090D09057047E2
:102EF0001CEB410F10D252EA43060BD0BCEB410F42
:102F000005D80C0DAB43661E342EB5DD02E0AB4395
:102F10008018594170BC704770BC7047F0B540F2E2
:102F2000FF7581EA030C0CF0004C15EA11541DBF2B
:102F300015EA1357AC42AF42E5E0BC41C1F31301BF
:102F4000C3F31303801A994143F4801304D2641E1F
:102F50004000494180185941C90241EA5051B1FB32
:102F6000F3F603FB1611A2FB0675D7EBC020A941AF
:102F700002D2761E80185941C90241EA5051B1FB74
:102F8000F3FE03FB1E11A2FB0E75D7EBC020A94177
:102F900003D2AEF1010E80185941890241EA9051E5
:102FA000760546EA8E2EB1FBF3F603FB1611A2FB63
:102FB0000675D7EB8020A94102D2761E80185941B0
:102FC000C90241EA50514EEA060EB1FBF3F603FB8B
:102FD0001611A2FB0675D7EBC020A94102D2761EBE
:102FE00080185941C90241EA5051B1FBF3F703FB84
:102FF0001711A2FB0735D3EBC020A94167F10007E9
:103000000CBF004247F0010766F3D5274FEA1E3197
:10301000B80814F5806412DDBD0775F1004250EB6D
:103020000E5051EB045111F5801F5CBF41EA0C01B9
:10303000F0BD4CF07F6141F0E0410020F0BDBD07E4
:103040006D0840EA0E5041F48011D4F10104B4F14E
:1030500020060ADAC4F120060200E04001FA06F375
:10306000E1401843B24015430EE0342C13DCC6F1A6
:10307000200445EA40056D0820FA06F2154321FABE
:1030800006F0A1400D43002175F1004250F100000F
:1030900051EB0C01F0BD00205FEA0C01F0BDCFB98F
:1030A00092185B41B3FA83F704BFB2FA82F6BF19F4
:1030B0000B3FB7F120062FBF02FA06F3BB40C7F162
:1030C000200622FA06F638BF3343BA401CB1E41991
:1030D000641E33E77F4231F00041B1FA81F404BF4E
:1030E000B0FA80F6A4190B3CB4F120062FBF00FA09
:1030F00006F1A140C4F1200620FA06F638BF31439C
:10310000A0403C1B1AE7AC421ABF05EA1357AF4276
:1031100012E050EA41061CBF52EA4306BFE750EAFC
:103120004107304661461CBF41EA0551F0BD52EAF5
:10313000430C08BFC143F0BD00204FF4001616EB4E
:10314000410F98BF16EB430F08BF16EB410F24BF8A
:10315000C14305E016EB430F0CBF61464CEA055135
:10316000F0BD000051EC100B00B500F003F841EC8D
:10317000100B00BD40F2FF7C0B0D4DD0634566D2B5
:1031800030B421EA035141F4801103F2FD3C5FEABF
:103190005C0C01D300184941890041EA907180001C
:1031A0004FF440140023E202D50AB1F5100107D410
:1031B0006D081DD2091B641900184941491BF7D538
:1031C0006D080AD20919641B00184941491BEFD543
:1031D0006D08F7D301E0520817D0C01861419B1A5F
:1031E000AC4100184941801AA941F4D452080AD0D0
:1031F000C01AA1419B186C4100184941801AA9418D
:10320000E9D45208F4D15B1C6C4161084FEA3300E9
:1032100001EB0C5130BC704750EA0103FBD030B4D5
:10322000B1FA81F311B9B0FA80F41B190B3BB3F179
:1032300020042FBF00FA04F19940C3F1200420FAC2
:1032400004F438BF21439840D3F101039DE763455F
:10325000E1D011F5801FDED850EA4101DBD0D9431F
:1032600005F008B8F446400D40EAC120490006D2F6
:1032700000F014F8004248BF6FF00040604700F0D3
:103280000DF84FF0004188428CBF0846404260472D
:10329000400D40EAC120490080F00D8040F0004020
:1032A000490DA1F58061491C05D4D1F11F0154BF1E
:1032B000C840C01770474FF00000704762F30F22FC
:1032C00062F31F42401810F0030308D0C91A1FD33D
:1032D000DB0748BF00F8012D28BF20F8022D13009E
:1032E00030B414461546103928BF20E93C00FAD8FE
:1032F000490728BF20E90C0048BF40F8042D890089
:1033000028BF20F8022D48BF00F8012D30BC7047BF
:10331000C91818BF00F8012DCB0728BF00F8012DF0
:103320007047000030B583B00121032005F00CF890
:10333000DFF80C4C204605F0A3F8DFF8085C2846BF
:1033400005F09EF801208DF8040000208DF805009E
:1033500001208DF8060000208DF807000121284685
:103360000183C0460120009000A9284605F0E4F83A
:10337000022128460183C0460220009000A9284669
:1033800005F0DAF801208DF8040000208DF8050022
:10339000ADF806004FF48070009000A9284605F0B3
:1033A000CBF84FF4807128464183C04601208DF848
:1033B000040000208DF8050001208DF80600002093
:1033C0008DF807004FF48050009000A9204605F0CA
:1033D000B3F84FF4805120464183C04604220621B1
:1033E000284605F0F7F804220721284605F0F2F8F0
:1033F00002208DF8040001208DF805008DF80600EC
:1034000000208DF807004020009000A9284605F014
:1034100093F88020009000A9284605F08DF804223A
:103420000A21284605F0D6F809220321284605F08E
:10343000D1F802208DF8040001208DF805008DF8E8
:10344000060000208DF807004FF48060009000A96E
:10345000284605F071F80820009000A9284605F0DC
:103460006BF8286820F0300040F0100028602068D9
:1034700020F0300040F01000206037BD1FB5DFF8AD
:10348000A84CA04230D101214FF4001004F067FF96
:103490000121022004F058FF01214FF4001004F034
:1034A0007FFF00214FF4001004F07AFF0020ADF8F8
:1034B00004004BF6FF70ADF806004FF48060ADF8E5
:1034C0000A004FF48040ADF80C000A20ADF8080067
:1034D000DFF8580C009000A9204605F0BEF8012145
:1034E000204605F01DF91FBDDFF8444CA0422FD146
:1034F00001214FF4800004F032FF0121022004F08A
:1035000023FF01214FF4800004F04AFF00214FF413
:10351000800004F045FF0020ADF804004BF6FF707A
:10352000ADF806004FF48060ADF80A004FF480401B
:10353000ADF80C000A20ADF80800DFF8F00B0090A1
:1035400000A9204605F089F80121204605F0E8F899
:103550001FBD2DE9F04192B001214FF4805004F0DD
:1035600009FF0121084604F0EFFE01214FF480001D
:1035700004F0EAFEDFF8C84905221146204605F0AE
:1035800029F805220721204605F024F80522062106
:10359000204605F01FF805220421204605F01AF800
:1035A00002208DF8040001208DF805000020ADF800
:1035B00006002020009000A9204604F0BDFF8020D6
:1035C000009000A9204604F0B7FF4020009000A919
:1035D000204604F0B1FF1020009000A9204604F01E
:1035E000ABFFDFF8504B204605F0FCF8DFF8485BF6
:1035F0000020288068600120288100206881E86020
:103600000720288200206880DFF8306B304605F004
:1036100059F9DFF82C7B384605F054F94FF48060F7
:10362000069000210D9103210E9100210F910A9126
:103630000890DFF8C80B0390084610900990079097
:103640004FF400300C9008460B904FF0C068CDF856
:103650000880402005900846049002A9304605F0F5
:10366000B5F900200B90CDF80880059005F1140005
:10367000049002A9384605F0A9F90020688029467F
:10368000204605F0DEF801220221204605F008F967
:1036900001221146204605F003F90121204605F0DC
:1036A000F3F80021304605F0B8F90021384605F05E
:1036B000B4F912B0BDE8F08130B589B001214FF006
:1036C000805004F04CFE012005F010FA01214FF467
:1036D000802004F039FE0F2005F0B8FB04461020CE
:1036E00005F0B4FB0546012004F02BFE002004F099
:1036F00028FE21460F2005F09CFB2946102005F0EE
:1037000098FB00214FF4802004F01EFE012004F0FD
:10371000B7FD412004F065FE0028FAD04FF4807018
:1037200004F0F9FD012004F009FE05F032FA3F2013
:10373000069040F2FF1007900020059005A805F0C4
:10374000DFF90020029002A905F044FA00208DF86C
:10375000070001208DF804008DF805008DF80600A3
:1037600001A9002005F0AFFA4FF4800005F04EFCEF
:103770004FF48000039000208DF8100008208DF891
:10378000110001208DF8120003A805F0FDFB0320B5
:103790008DF800000D208DF8010000208DF802004A
:1037A00001208DF8030000A805F03DFC032005F082
:1037B000FEFA4FF4804005F0B4FB4FF4800005F0B2
:1037C00025FC01214FF4804005F071FB012009B078
:1037D00030BD30B585B00121084604F0B5FD0121AA
:1037E0004FF4804004F0C6FD00208DF810008DF8E5
:1037F000130001200390DFF8485703A9284604F07E
:103800009BFE4FF40064039403A9284604F094FE41
:103810000420039003A9284604F08EFE00210846E8
:1038200005F03AFC0B21002005F036FC02210020B7
:1038300005F032FC00208DF8080001208DF80A0008
:1038400001900C208DF8090001A805F09DFB019462
:103850000C208DF8090001A805F096FB204605F024
:10386000D5FB042001900C208DF8090001A805F07B
:103870008BFB042005F0CAFB28208DF800000F20E8
:103880008DF8010000208DF8020001208DF8030062
:1038900000A805F0C8FB05B030BD30B58DB00446BA
:1038A00001214FF4807004F065FD00A804F07EFE55
:1038B0000A20009003208DF8040000208DF80700F6
:1038C00000A9DFF87C0604F037FE05F0F9FB02A83A
:1038D00005F03BFC4FF48030039002A805F027FC74
:1038E00006A805F01AFCDFF8705B06A9284605F06B
:1038F000F4FB072301222146284605F037FC01216D
:10390000284605F078FC0121284605F024FC0DB07E
:1039100030BD38B5DFF8404B204605F067FC4FF46A
:103920007A750221204605F07DFC002803D1284647
:10393000451E0128F5DA2046BDE8324005F066BC98
:1039400080B50021DFF8100B05F005FC00214FF4D5
:103950008070BDE8044004F00DBD000038B50400DF
:1039600039D0012005F0C2F8002005F03AFA4FF4F2
:103970000055042005F0B6FA012804D12846451E5A
:1039800080B20028F5D100EE104AB8EE400ADFED13
:10399000780A80EE800AF0EE000A20EE200ADFEDC1
:1039A000750A80EE800ABDEEC00A10EE100A401EB5
:1039B00080B205F00CFA4FF4804005F0B2FA4FF4F3
:1039C000800005F023FB012005F00BFADFF8800BE7
:1039D0000121416031BD012005F088F80020BDE8DB
:1039E000324005F0FEB9000030B40146012000234A
:1039F000DFF8682A1C469460946814F00C0FFBD121
:103A00000C460B2C55D8DFE804F02054545406190A
:103A10002031383F464D946844F080049460DFF8CC
:103A2000404A4FF4C0652560146824F08074146027
:103A3000DFF8B04ADFF82C5A25603BE00346DFF898
:103A4000A44ADFF8A45A256034E094689460DFF853
:103A5000104A4FF4C0652560146824F08074146027
:103A6000DFF8804ADFF8845A256023E00223DFF87C
:103A7000744ADFF87C5A25601CE00323DFF8644AAF
:103A8000DFF8705A256015E00423DFF8584ADFF8A4
:103A9000C45A25600EE00523DFF8484ADFF8B85A1B
:103AA000256007E00623DFF83C4ADFF8B05A2560BE
:103AB00000E01846002B4AD003EBC3030FF2B80412
:103AC0001B1994689460146824F08074146014685E
:103AD00024F0806414609C781D8844EA8514DD78A5
:103AE0006D086D1E44EA05441D7944EA056454607E
:103AF000DC881D7A2D0745EA8414DFF8C05A2C6053
:103B0000146844F0807414601468A401FCD55B79D7
:103B100043F4C063DFF84849236093689360936877
:103B20009360052904D1916841F09001916005E00E
:103B30000A2903D1916841F480519160916841F064
:103B400002019160916801F00C010829FAD1DFF8B7
:103B500094190968DFF8682A914207D2DFF8F41A4D
:103B60000A6822F4404242F480420A6030BC704746
:103B700000007A4400000047200110040F030201F6
:103B800003F00010060F01020103C00010080F012E
:103B9000020103C00010060F01020103F00010062D
:103BA0000F01020103C80010040F02020103A80064
:103BB00010020F030201030016E7002800E0401E78
:103BC000FDD170477CB50726DFF85C1588426BD1C4
:103BD00001208DF804008DF805008DF80600002006
:103BE0008DF8070040200090DFF8885A00A9284689
:103BF00004F0A2FC8020009000A9284604F09CFC60
:103C0000402128464183C0460F20FFF7D6FF4021C0
:103C100028460183C0460F20FFF7CFFF3046461EDF
:103C200080B20028ECD18020009000A9284604F042
:103C300083FC402128464183C0460520FFF7BDFF95
:103C4000802128460183C0460520FFF7B6FF4021AA
:103C500028460183C0460A20FFF7AFFF40212846CF
:103C60004183C0460520FFF7A8FF802128464183F5
:103C7000C0460520FFF7A1FF02208DF804000120B7
:103C80008DF805008DF8060000208DF80700402013
:103C9000009000A9284604F04FFC8020009000A965
:103CA000284604F049FC73BDDFF8841488426AD1C9
:103CB00001208DF804008DF805008DF80600002025
:103CC0008DF807004FF480640094DFF8A85900A92C
:103CD000284604F031FC0820009000A9284604F092
:103CE0002BFC214628464183C0460A20FFF765FF8A
:103CF000214628460183C0460A20FFF75EFF304672
:103D0000461E80B20028ECD10820009000A9284669
:103D100004F012FC214628464183C0460520FFF7E7
:103D20004CFF082128460183C0460520FFF745FFC8
:103D3000214628460183C0460A20FFF73EFF214660
:103D400028464183C0460520FFF737FF0821284653
:103D50004183C0460520FFF730FF02208DF80400A4
:103D600001208DF805008DF8060000208DF8070071
:103D7000009400A9284604F0DFFB0820009000A969
:103D8000284604F0D9FB73BD10B5DFF8EC480121DB
:103D9000206804F0FEFC206804F030FC2068FFF787
:103DA0006DFB05E02068FFF70DFF2068FFF766FB5D
:103DB0004FF40031206804F0F7FC0028F2D110BD68
:103DC00030B40022838A008BDFF8AC48656843EA90
:103DD00000400840000255EA102060600840884218
:103DE00000D10122104630BC70472DE9F84F04463F
:103DF0000D4616464FF420491F78DFF87C884FF4B3
:103E00000031D8F8000004F0CFFC002808D0484664
:103E1000A0F101090028F2D1FFF7B6FF00208CE0E5
:103E2000D8F8000001884FF6FF52114001800121AF
:103E3000D8F8000004F080FC4FF4805AD1460020EE
:103E4000C8F80400D8F800B0DFF830185846FFF77B
:103E5000B7FF002805D14846A0F101090028F1D19B
:103E600063E0D14600222146584604F07DFC002044
:103E7000C8F80400D8F80040DFF804182046FFF71F
:103E80009FFF002805D14846A0F101090028F1D183
:103E90004BE03146C9B220460182C046D1460020DF
:103EA000C8F80400D8F80040DFF8D8172046FFF71C
:103EB00087FF002805D14846A0F101090028F1D16B
:103EC00033E0012F15D1297820460182C046D14622
:103ED0000020C8F80400DFF8B017D8F80000FFF79A
:103EE0006FFF002823D14846A0F101090028F2D134
:103EF0001BE03846471EC0B2002818D015F8011B39
:103F0000D8F800000182C046D1460020C8F804005D
:103F1000DFF87417D8F80000FFF752FF0028E8D147
:103F20004846A0F101090028F2D1002005E0012156
:103F3000D8F8000004F00CFC0120BDE8F28F00006E
:103F400000000240000402402DE9F54F81B00D460B
:103F50001E464FF420483778DFF81C474FF40031F5
:103F6000206804F021FC002808D04046A0F1010898
:103F70000028F3D1FFF708FF0020D3E02068018874
:103F80004FF6FF52114001800121206804F0D4FB5C
:103F90004FF48059C84600206060DFF8E0A6D4F8EE
:103FA00000B051465846FFF70BFF002805D14046A8
:103FB000A0F101080028F2D191E000229DF8041040
:103FC000584604F0D1FBC84600206060D4F800B029
:103FD000DFF8AC165846FFF7F3FE002805D140463F
:103FE000A0F101080028F1D179E0BDF80810C9B2AC
:103FF00058460182C046C846DFF89016206804F093
:10400000D3FB002805D14046A0F101080028F3D1D8
:1040100065E00121206804F08FFBC8460020606045
:10402000D4F800B051465846FFF7CAFE002805D123
:104030004046A0F101080028F2D150E001229DF88D
:104040000410584604F090FB022FC84639D2DFF81E
:104050004016206804F0A8FB002805D14046A0F1D6
:1040600001080028F3D13AE00021206804F085FB24
:104070002068018B012104F06BFBC846DFF81416A1
:10408000206804F091FB002805D14046A0F101080A
:104090000028F3D123E02068008AC0B2287030786D
:1040A000401E3070C84620680188890505D5404605
:1040B000A0F101080028F6D111E0012104F05DFB18
:1040C0002BE000206060DFF8D0152068FFF778FE55
:1040D000002806D14046A0F101080028F3D10020B5
:1040E00020E0012616E0012F0CD1012E0AD1002676
:1040F0003146206804F041FB2068818A018B012150
:1041000004F026FB2068818A490603D5008A05F859
:10411000010B7F1EFFB2002FE5D10121206804F0C2
:104120002CFB0120BDE8FE8F00540040801A0600E1
:1041300000580040003001402825012088640240DA
:1041400010640240DFF854050168082933D1DFF814
:104150000C130A6842F080720A604268B2F1806F04
:1041600003D10A6842F080620A600A689201FCD5B5
:104170008A6842F002028A608A6802F00C02082A09
:10418000FAD14268B2F1806F02D10A681201FCD5FF
:10419000DFF850130968DFF82824914207D2DFF8CE
:1041A000B4140A6822F4404242F480420A600021BA
:1041B0000160416070474168B1F1806F09D1A74942
:1041C0000A6842F080620A600A681201FCD5002188
:1041D00041607047DFF8C804016841F08051016018
:1041E000DFF8700401688908890041F0010101606D
:1041F000DFF8B0040FF20901016070470C30014094
:1042000038B5DFF8A444208840F004002080FEF791
:1042100024F8807A012803D1012004F06AFC02E02E
:10422000002004F066FCDFF884548021DFF880046D
:1042300004F040FB002818D172B68848DFF85C14FF
:10424000826802F00C020A60006800F0806048603A
:10425000286840F00400286030BF62B6286820F06B
:1042600004002860FFF76EFF0CE0608840F0040057
:104270006080286820F00400286030BF286840F083
:1042800004002860608840F00400608031BDDFF8E1
:104290001404006800470000DFF81814012806D055
:1042A00010D3032809D005D3042809D00AE0DFF889
:1042B000C41307E0DFF8001404E0DFF8001401E0A5
:1042C000DFF8FC130846704710B50C46FFF7E4FF13
:1042D000214689B2BDE8104004F078B910B50C460B
:1042E000FFF7DAFF214689B2BDE8104004F070B94B
:1042F000E0B500238DF8083001238DF80A30002A3C
:1043000003D10C228DF8092002E008228DF8092043
:1043100004283CD8DFE800F0030D192222004FF4F6
:104320000060019028208DF800000F208DF801001A
:104330001CE01846019010208DF8090006208DF829
:1043400000000E208DF8010010E0022001900720EF
:104350008DF800000F208DF8010007E00420019087
:1043600008208DF800000F208DF8010000208DF846
:104370000200012903D118468DF8030001E08DF8F1
:10438000030001A804F000FE00A804F04CFE07BDE5
:104390004FF40061C74804F012B910B5044601217A
:1043A0004FF4802003F0D0FF2146102004F041FD9F
:1043B00000214FF48020BDE8104003F0C5BF10B5C8
:1043C00001214FF4802003F0BFFF102004F03EFDD8
:1043D000044600214FF4802003F0B6FF7B2004F058
:1043E00000F8002802D09CA0FDF7B8FF7A2003F067
:1043F000F8FF002802D099A0FDF7B0FF792003F064
:10440000F0FF002802D096A0FDF7A8FF7C2003F063
:10441000E8FF002802D093A0FDF7A0FF7D2003F065
:10442000E0FF002802D090A0FDF798FF7E2003F067
:10443000D8FF002802D08DA0FDF790FF7F2003F069
:10444000D0FF002802D08AA0FDF788FF03F0DFFF2D
:104450002046C0B210BD00000020014000380240DC
:10446000003C024000127A003EB50C46154604227C
:10447000014602A800F0EEF90422214601A800F04E
:10448000E9F90422294600A800F0E4F902A9002075
:1044900004F0A0FB01A9002004F015FC04F00EFCC0
:1044A0000446884A002300981946101A63EB01015C
:1044B000490241EAD051400204F0DEFE00908442FD
:1044C00005D2011B4FF0004004F0CDFC37BDA042E7
:1044D00007D2C4F50070009909184FF0004004F0AD
:1044E000C2FC37BDE0790020809698000024F400DB
:1044F00000366E010048E8012DE9704384B004469F
:104500000D46164602A9002004F0B3FB01A90020C5
:1045100004F029FC04F0D2FB00906A4AA2FB008957
:104520004FEA582848EAC958A2EB08000090042234
:1045300002A9204600F08EF9042201A9284600F0C5
:1045400089F9042200A9304600F084F9BDE87F8390
:104550004C290120005A620280F0FA0200BD0105D8
:10456000F0B4049C059D8E1E012E01DA0C36401E0F
:104570003C216427B0FBF7F7C7EB90074FF4C87CEA
:10458000B0FBFCFC674440F26F1C0CFB06F64FF0DE
:104590000C0CB6FBFCF6F619921940F26D1606FBF0
:1045A0000020494A101800EB400203EBC20001FB57
:1045B000004001FB0050F0BC70470000843802400E
:1045C000018793031CB50C46016801914168009175
:1045D0008368C2680169491C406900F26C70FFF78A
:1045E000BFFF2060002016BD10B58EB037480068B0
:1045F000C405E40D01A9002004F03BFB00A9002044
:1046000004F0B1FB9DF8040006909DF805000590AC
:104610009DF8060004909DF80100401E08909DF84A
:10462000020007909DF803006430099002A904A8D5
:10463000FFF7C8FF4FF47A7010FB04F0400AC0F592
:104640007A700390029A4FF47A73C117E3FB020168
:104650000EB010BD00700040504F520050494E0047
:10466000424F5200534654004957440057574400A4
:104670004C50570000040240307A00200100030033
:10468000820007008000070084000700040000107B
:104690000200001040000010020003005429012015
:1046A000403802404C2901201800024010ED00E083
:1046B000003001400000024000080240000C0240AF
:1046C0000010024000CA9A3B7505F5FF28280040FB
:1046D000002204F049BE000008B584B00023029314
:1046E00011B90093019302E00090481E019004ABC1
:1046F00000A907487844183004F050FE009909B129
:1047000000220A70002858BF029805B000BD00BF03
:10471000A3E6FFFF00F10103810704D010F8011B9D
:1047200089B18107FAD10268B2F10131914311F0E8
:10473000803F04BF50F8042FF6E710F8011B11B1B9
:1047400010F8011BFBE7C01A7047000000B585B0E8
:1047500002460FF2140100A805F088FC00A800F042
:104760000CFC05B000BD00004F45256400000000B2
:1047700030488168002904BF08B008E0EFF30982DF
:10478000A2F12802036882E8F84F83685A6000F0BB
:104790004DFE816859B14A6892E8F84F036002F112
:1047A000280282F3098813F47F4F36D070472248DD
:1047B00022490968401A80F308884FF08071C1616E
:1047C0001F4981617FF0060E704701BC2046DFF86B
:1047D00074E000BDFEE71C48006818490968401AEB
:1047E000203820F0070080F308884FF0000181F3A3
:1047F000118862B600F00DF8FEE74FF0000181F37A
:1048000011881249124A0A604FF0800181F3118821
:1048100070470E490E4A0A6070474FF0000181F35D
:104820001188704700BF4FF0800181F311887047F5
:1048300000BF000024790020E01F0020841B030833
:10484000B9A30008D54700080000000804ED00E007
:104850000000001010B50446FEF7BEF8204610BD5B
:10486000EFF303807047BFF34F8FDFF85407016801
:1048700001F4E061DFF84C2711430160BFF34F8F73
:10488000FEE770B582B006460C462046FFF742FFB1
:104890000546202D05D10422314600A8FFF7DAFF96
:1048A00006E0102D16D10222314600A8FFF7D2FFF4
:1048B000002000E0401CA8420EDA015D7829F9D002
:1048C000009A2B465B1E1B1ADA4002F001023039B7
:1048D0008A42EFD0002076BD012076BDDFF8E816D1
:1048E000016006207047A0F10060DFF8E016884202
:1048F0008041C00F7047F8B504460D460020009077
:104900002068FFF7F0FF00281AD000A8FFF7E6FFA5
:104910000646002700E07F1CB74211D2009850F8ED
:10492000371000EBC700406840422268520810EB85
:104930004200FFF7A6FF0028EDD02F600120F2BD56
:104940000020F2BDF8B50C46DFF884168A6DCB6DF9
:10495000002559082E465F1B062F11D3482707FB59
:1049600001273F6C874200D20D46B84200D20B4669
:10497000E918490837467E1C1F2FECD300E06D1C58
:104980009D4211D2482707FB05210E6CB042F6D399
:104990004E6C8642F3D34022204605F081FB002076
:1049A00084F840000120F2BD40220FF2D861204679
:1049B00005F076FB0020F2BDF0B591B0044600256D
:1049C0000EE032590FF2C86100A805F04FFB00A8B5
:1049D000FFF7A0FE024600A9381D05F061FB6D1C23
:1049E00005EBC500C600305900280BD0371900A9C7
:1049F000FFF7A8FF0028E4D0402200A9381D05F0E9
:104A00004FFBECE711B0F0BDF8B507460C46154674
:104A1000002630460090002F1ED0002C09D1F2BD98
:104A200006EBC600C00057F8041B49084900415175
:104A3000761C0C2E0FD200A93846FFF75CFF002829
:104A400007D13868FFF74FFF002802D13F1DBC4255
:104A5000F1D2BC42E4D23046F2BD70B5DFF8741535
:104A60000A460B68D21A1368DFF86C45A34201D0DE
:104A7000002070BDDFF85845121DA2650968091FA6
:104A80004822B1FBF2F1E16510F1030F02D010F101
:104A9000130F0AD1DFF84455A86805F037FB064626
:104AA000A86805F03FFB811905E005F049FB0546C4
:104AB00005F048FB4119DFF82855206A286005F108
:104AC0004802206BFFF7A0FF2846FFF775FF012083
:104AD00070BD0EB430B5CCB0044600A84FF496714A
:104AE000FFF7F6FD00254FAB22464FF4967100A864
:104AF000FFF7F2FD00A8FFF70DFE044609E0DFF81E
:104B0000D014486E421C4A6600A9695C05F082FB1D
:104B10006D1CA542F3D34CB030BC5DF810FB38B52A
:104B20000024DFF8AC5468660FF26C50FFF7D1FF39
:104B3000DFF8B00401680FF28450FFF7CAFF286D58
:104B400000902B6CEA6BA96B0FF28850FFF7C1FF46
:104B5000696D0FF2B850FFF7BCFFEA69296A0FF2DE
:104B6000C050FFF7B6FF0FF2D050FFF7B2FF06E0DC
:104B70001018021D0FF2D850FFF7ABFF641C04EBB6
:104B8000C400C200DFF8580411580029F0D10FF218
:104B9000CC50FFF79EFF286E441E002505E0091843
:104BA000CEA0FFF796FF641E6D1C3C2D0AD2002C90
:104BB00000D53B24322000FB04F1DFF82C040A5C12
:104BC000002AECD131BD70B5DFF80444216E3C29D8
:104BD00001D300212166256E3221DFF80C2401FB70
:104BE00005260A4601463046FFF734FE002086F8C7
:104BF0003100681C206670BD2DE9F84304467646F6
:104C0000DFF8CC5330466FF01E01401A13D008383D
:104C100011D0001F05D0001F0DD008380BD0001F89
:104C200010D104F12000A8622863EFF3148040F053
:104C30000200686306E004F12000A8622863EFF335
:104C400014806863EFF30880E862EFF30580A863DF
:104C5000EFF30080E863FFF703FE2864EFF31080B2
:104C60006864EFF31180A864EFF31380E864F1EE59
:104C7000100A28656E65002705E005EB870054F8EB
:104C8000271081607F1C082FF7D33046FFF7E5FE21
:104C900000F06CF9002840F0008100F001F905F007
:104CA00059FAF32005F0D0FAD048002406E005EBCD
:104CB0008401896805F092FA3046641C061D082CB0
:104CC000F5D3A96A05F08AFAE96A304605F086FA52
:104CD000341D296B204605F081FA241D696B20469E
:104CE00005F07CFA241DA96B204605F077FA241DF7
:104CF000E96B204605F072FA241D296C204605F068
:104D00006DFA241D696C204605F068FA241DA96C13
:104D1000204605F063FA241DE96C204605F05EFA92
:104D2000241D296D204605F059FA241D44212046F2
:104D300005F070FA641C5521204605F06BFA641CDE
:104D40004D21204605F066FA641C5021204605F0EE
:104D500061FA661C002405E03978304605F03EFA19
:104D6000361D641C122C16D20FF2104050F834700D
:104D700000EBC40040680128EED0022806D00428C9
:104D8000EED13968304605F029FAE9E7398830462E
:104D900005F024FAE4E7002709E00FF2704050F82C
:104DA00037000168304605F019FA26467F1C341D8D
:104DB000042FF2D3002609E00FF2704050F83600BD
:104DC0000168204605F00AFA241D761C052EF3D34F
:104DD00000260FF280490DE03968204605F0FEF903
:104DE000241D3F1D08F1010809EBC60040688045FD
:104DF000F2D3761C072E04D259F836704FF0000813
:104E0000F2E7002709E00FF2844050F8370001680C
:104E1000204605F0E3F9241D7F1C042FF3D3432122
:104E2000204605F0F7F9641C4F21204605F0F2F901
:104E3000641C5221204605F0EDF94521601C05F067
:104E4000E9F96B484FF00054002605E02178641C16
:104E500005F0E0F93846761C471CB6F5C03FF5D39F
:104E6000532105F0D7F95221384605F0D3F97C1CBF
:104E70004121204605F0CEF9641C4D21204605F065
:104E8000C9F92846C046C04604F10D00FFF747FEA9
:104E900005F069F9574800F023F8BDE8F143E2E472
:104EA00010B505F057F9F32005F0CEF9524C382033
:104EB000206002E02068083020602068402807D287
:104EC000002105F056F90928F4D0FFF7CCFCFCE7E7
:104ED000BDE8104005F047B90000000025730A0046
:104EE00038B5044605F036F9F32005F0ADF93D4834
:104EF0000168204605F072F9241DFF21204605F0C7
:104F000089F9641C324D6979204605F083F9641CE7
:104F1000E978204605F07EF9641C2979204605F0E1
:104F200079F9641C2978204605F074F9641C6978C5
:104F3000204605F06FF9641CA978204605F06AF94F
:104F4000F521601C05F066F9BDE8314005F00BB9AC
:104F500080B505F0FFF8F32005F076F9AA2127487F
:104F600005F058F9BDE8014005F0FDB800202349DF
:104F70000978F52900D10120704710B50446FFF7E4
:104F8000C9FBC0B2142800D31320024621461C4896
:104F9000FFF760FC4FF0AC30007810BD80B500F03A
:104FA00040F8BDE801405EE480B5FFF7D1FF4FF463
:104FB000C8320E490020BDE8084002F015B80000D4
:104FC0000CED00E00400FA05C478002001F80200AE
:104FD00004180120FC4F0508FECAFECA24790020EF
:104FE000D4E70020487A0020F4AF00200000060833
:104FF000000A0608F4FF0708E4290120FFFF07085C
:10500000E426012010B500F01BF80FF2A024204682
:10501000FFF780FB024621460020BDE8104001F06A
:10502000E3BF80B501214FF4802003F08DF901200A
:1050300003F05CFD94210F20BDE8044003F0F9BEAD
:1050400080B501214FF4802003F07EF9012003F0A8
:105050004DFD00210F20BDE8044003F0EABE10B56D
:10506000002401214FF4802003F06EF9012003F0A9
:105070003DFD0F2003F0EAFE942800D101242046D4
:1050800010BD00004E6F2053796D626F6C00000000
:1050900030782530387800000A0A0A0A3D3D20435E
:1050A000726173682044756D7020496E666F726D11
:1050B0006174696F6E203D3D0A0000004669726DA3
:1050C000776172652056657273696F6E203A20258C
:1050D000640A00000A49505352203D203078257858
:1050E0002C2041505352203D20307825782C2078B8
:1050F000505352203D20307825782C205046534381
:1051000052203D20307825780A0000000A63726141
:105110007368206D6F6465203D203078257800002D
:105120000A5043203D20307825782C204C52203DD9
:1051300020307825780A00000A3C437261736820A9
:1051400043616C6C20537461636B3E0A0000000085
:1051500030782578202025730A0000000A0A3D3D9A
:1051600020526563656E74204C6F67204D657373C4
:1051700061676573203D3D0A0000000008E000E023
:105180000400000000ED00E00400000004ED00E079
:105190000400000008ED00E0040000000CED00E059
:1051A0000400000010ED00E00400000014ED00E039
:1051B0000400000018ED00E0040000001CED00E019
:1051C0000400000020ED00E00400000024ED00E0F9
:1051D0000400000028ED00E00100000029ED00E0DF
:1051E000010000002AED00E0020000002CED00E0CC
:1051F0000400000034ED00E00400000038ED00E0A1
:10520000040000003CED00E00400000010E000E0BD
:105210000400000014E000E00400000018E000E0DA
:10522000040000001CE000E00400000090ED00E03D
:105230000400000094ED00E00400000098ED00E0A0
:10524000040000009CED00E004000000A0ED00E080
:105250000400000000E100E00800000080E100E040
:105260000800000000E200E00800000080E200E02A
:105270000800000000E300E00800000000E400E097
:105280003C00000000EF00E00100000088ED00E0BD
:105290000400000034EF00E00400000038EF00E0FC
:1052A000040000003CEF00E004000000534E414DBC
:1052B000590000000000000038B5FFF7B4FADFF82D
:1052C00030068468DFF8280600210171FFF7A5FA8F
:1052D000002C2CD02068002829D0607C2168497CD3
:1052E000C0B2814223D1256800E00D002968002961
:1052F00003D04A7CC0B28242F7D0FFF794FADFF8BD
:10530000F0050069A04203D1DFF8E40521680161DE
:10531000E06921680160C861E561296821600029B0
:1053200000D0CC612C6095F8410085F84000FFF773
:1053300074FA31BD10B5FFF776FADFF8B8050468E6
:10534000DFF8AC05006A201A012832DADFF8A00580
:10535000046A04E0DFF898050462FFF75EFADFF8FC
:1053600098050078C00722D5FFF75DFADFF88805B9
:1053700000788007EED5DFF88005007810F0FD009A
:10538000DFF874150870FFF748FADFF86405006A63
:105390008442FAD0DFF858050462DFF85805006847
:1053A000401CDFF850150860DFF844154862FFF72D
:1053B0003AFA10BD38B504000020A071206A10F53B
:1053C0007A606062E069002802D02000E1698847C5
:1053D000FFF723FAE56809E0E868616A401A0028E7
:1053E00001D5E8686062FFF718FA2D68002D1AD021
:1053F000FFF719FA2069002804D0687C2169497CEC
:10540000884212D3287C4007EDD5E868216A401A0B
:105410000128E1DA280000F09EF9FFF704FA287C61
:105420000028D9D101E0FFF7FEF931BD70B50400C5
:10543000002060700120207004F082FE0078C0B26D
:10544000CD2802D07D20FFF781F9A06800280CD07C
:10545000A068406C002808D0A068406C0168080073
:10546000002802D0A0684068884794F829000028E6
:105470000BD0A06894F8281080F84010DFF8700472
:105480000079002801D0FFF717FFDFF870040078DB
:10549000002823D0DFF868040068DFF85414096A94
:1054A000401A002804D5DFF854040021017015E0EB
:1054B000FFF7B9F904F08DFF0500FFF7AEF9A0681A
:1054C000002808D0A068406B2818DFF83814096855
:1054D000401AA1684863DFF82C040560A068002822
:1054E00008D0A068007C002804D1A068006B401C94
:1054F000A1680863206900282BD003E03068206190
:10550000FFF78BF9FFF78FF92669002E27D0357C3E
:10551000EDB2002D23D0680710D5F068216A411A3A
:10552000012906DA300000F016F9307C002805D198
:105530000FE0616A411A002900D56062EDB215F0F2
:10554000FB001028DAD1B06880684068007C002831
:10555000D4D1FFF768F902E02000FFF72BFFA07914
:105560000028F9D1DFF890030078C00701D5FFF7D4
:10557000E1FE002060712069002839D02069007C9C
:10558000002805D02069806880684068A06001E03C
:105590002069A060A06890F84C00642802D08020A8
:1055A000FFF7D4F8A068806A0078CD2802D0782070
:1055B000FFF7CCF8A068406C002808D0A068406CC9
:1055C00041680800002802D0A06840688847A068A9
:1055D00090F8400084F8280084F82900DFF81003D0
:1055E0008068C06A401CDFF808138968C8620BE055
:1055F000002084F82900002084F828000020A06002
:1056000000202070FFF709F9200070BD80B504F07C
:1056100025FFDFF8F4120978002806D0022810D000
:1056200009D3042815D010D314E0002902D0A320F8
:10563000FFF78CF811E0002902D1A420FFF786F8CB
:105640000BE0A620FFF782F807E0A720FFF77EF81F
:1056500003E002E0A820FFF779F801BD10B504F0DF
:10566000FDFE0400DFF8A0020078002802D0A02090
:10567000FFF76CF8002C05D0022C08D003D3032CC4
:1056800009D00CE00EE0A420FFF760F80AE0A620A5
:10569000FFF75CF806E0A720FFF758F802E0A82023
:1056A000FFF754F810BD80B504F0D8FE002805D0EF
:1056B000022808D006D3032809D00CE0A320FFF766
:1056C00045F80BE00AE0A620FFF740F806E0A72027
:1056D000FFF73CF802E0A820FFF738F801BD80B5DD
:1056E000DFF80C020078002802D19720FFF72EF88F
:1056F000DFF8FC010078401EDFF8F4110870C0B23A
:10570000002827D1DFF8E8014068002822D0FFF701
:105710008AF8DFF8DC01406800280BD0DFF8D00100
:1057200001210170DFF8C801FFF767F8DFF8C00159
:1057300000210170DFF8B8014078F021084202D062
:105740009920FFF703F8DFF8A8014078002801D17D
:10575000FFF763F801BD10B5816800290CD0DFF8B0
:105760009011096AC16081680A684968002A00D0FE
:1057700051600A6000218160017C11F00301017415
:10578000C9B2002945D1DFF868110969002929D17A
:10579000DFF85C110861DFF85801007800280CD1AF
:1057A000DFF84C0101210170DFF84401FFF725F813
:1057B000DFF83C010021017003E0DFF83401012132
:1057C0004171DFF82C014078F021084202D0992085
:1057D000FEF7BCFFDFF818014078002801D1FFF781
:1057E0001CF816E0427C4B7CD2B29342D0D381426B
:1057F000D1D04B7CD2B29A420BD10300FFE71B6899
:10580000002BDED05C7CD2B2A242DAD18B42F6D140
:10581000BEE710BD10B50400627C35480078401C1E
:1058200033490870394800E008000168002903D0B6
:105830004B7CD2B29A42F7D32160E0610460002928
:105840000AD0CC61487CD2B2904202D194F8410097
:1058500000E0002084F84000207C002812D1FEF7F0
:10586000E2FF2000FFF777FF21484078F02108424F
:1058700002D09920FEF76AFF1D484078002801D128
:10588000FEF7CBFFFFF72BFF10BD10B518480478CB
:1058900017480078401C164908701548FEF7ADFF00
:1058A0001348047012484078F021084202D0992031
:1058B000FEF74CFF0E484078002801D1FEF7ADFFFF
:1058C00010BD10B504F0D0FD09480121017004F0AD
:1058D00037FC04006846C046021B203A012A03DB5D
:1058E000CD212000FCF796FC09480121017010BD74
:1058F00024790020242A0120782A0120792A0120F5
:105900003C2A0120282A01207A2A0120307900200F
:105910007C2A0120506002604160086070470A687C
:10592000F8E748600160704701684068F9E7F8B53A
:105930000600DFF8605802D505F15400F2BD05F10C
:1059400054040020E96E00E0096805F16C02914200
:1059500004D00C46A2689642F6D10120002840D11E
:10596000686FD0F88070182004F0A2FD0446A6608D
:10597000002F05D0B74203D2B6FBF7F0784300E022
:105980003046E060002F02D0B74200D23E4626618A
:1059900000202075DFF800683078401C3070707887
:1059A000F021084202D09920FEF7D0FEFEF73BFF1F
:1059B0007078401C707005F16C012046FFF7AFFF56
:1059C0007078F021084202D09920FEF7BFFE70786F
:1059D000401E7070C0B2002801D1FEF71EFFFFF715
:1059E0007EFE2046F2BD38B5044694F91400002826
:1059F00029D1DFF8A4572878401C28706878F02156
:105A0000084202D09920FEF7A1FEFEF70CFF68784D
:105A1000401C68702046FFF787FF204604F060FDB9
:105A20006878F021084202D09920FEF78FFE68784E
:105A3000401E6870C0B2002801D1FEF7EEFEBDE83E
:105A40003140FFF74CBE31BDF8B5044608466FF053
:105A50000045FFF76CFF064694F9050094F9041021
:105A6000814214D1C01C800004F022FD074694F945
:105A70000500012807DB820021683846FEF7EAFEB0
:105A8000206804F02DFD27606079C01C607194F9D6
:105A90000400411C2171216841F82060DFF8FC06F8
:105AA000864202D0307D401C3075002008E021681D
:105AB00051F820108A68954201DB1546A160401C10
:105AC00094F904108842F2DBF1BDF8B504466FF09A
:105AD0000046DFF8C02602F1540502F154004FF0F1
